S01800002E5C6F626A5C6170706C69636174696F6E2E73313927
S11300000030002089060000D1060000DD06000053
S1130010E9060000F5060000010700000D070000D6
S11300201907000025070000310700003D07000004
S11300304907000055070000610700006D07000034
S11300407907000085070000910700009D07000064
S1130050A9070000B5070000C1070000CD07000094
S1130060D9070000E5070000F1070000FD070000C4
S11300700908000015080000210800002D080000F0
S11300803908000045080000510800005D08000020
S11300906908000075080000810800008D08000050
S11300A099080000A5080000B1080000BD08000080
S11300B0C9080000D5080000E1080000ED080000B0
S1130400FFFFFFFFFFFFFFFFFFFFFFFF7EFFFFFF79
S113041080B582B000AF78603960BD4602B080BD5F
S113042080B58AB000AFF860B9607A607B687B629F
S113043004233B620323FB610223BB6101237B6131
S113044001233B61FA68BB689A4202D07B68002BA7
S113045000D14DE049E0FB69BA68134018D1FB694B
S1130460FA68134014D13A6A7B6A9A4210D8FB683E
S1130470BA6812681A603B6AFA68D318FB603B6A70
S1130480BA68D318BB603B6A7A6AD31A7B622CE0E1
S11304907B69BA68134018D17B69FA68134014D198
S11304A0BA697B6A9A4210D8FB68BA6812881A80C3
S11304B0BB69FA68D318FB60BB69BA68D318BB6020
S11304C0BB697A6AD31A7B620FE0FB68BA68127858
S11304D01A703B69FA68D318FB603B69BA68D31891
S11304E0BB603B697A6AD31A7B627B6A002BB2D108
S11304F0BD460AB080BDC04690B583B000AF2D4B59
S1130500002B00D153E000237B6032E029497A6854
S1130510131C5B009B189B00CB18586825497A680C
S1130520131C5B009B189B005958224C7A68131CBF
S11305305B009B189B00E31808331B681A1CFFF729
S11305406FFF1C497A68131C5B009B189B00CB1837
S1130550596818487A68131C5B009B189B00C318E1
S113056008331B68081C191CFFF752FF7B68013312
S11305707B6010497A68131C5B009B189B005B58D6
S1130580002BC3D10B497A68131C5B009B189B009A
S1130590CB185B68002BB9D106497A68131C5B0041
S11305A09B189B00CB1808331B68002BAED1BD46AB
S11305B003B090BD1422000080B588B000AF274A74
S11305C0274BD31AFB61264BBB6104237B610323B6
S11305D03B610223FB600123BB6001237B60FB6959
S11305E0002B00D136E032E03B69BA6913400FD1E9
S11305F07A69FB699A420BD8BB6900221A607B694D
S1130600BA69D318BB617B69FA69D31AFB611EE02E
S1130610BB68BA6913400FD1FA68FB699A420BD8D8
S1130620BB6900221A80FB68BA69D318BB61FB68F6
S1130630FA69D31AFB610AE0BB6900221A707B686D
S1130640BA69D318BB617B68FA69D31AFB61FB6989
S1130650002BC9D1BD4608B080BDC046D0F0FF1FF5
S113066064F0FF1F80B500AFBD4680BD80B500AF0C
S1130670BD4680BD80B500AFBD4680BD80B500AF2E
S113068000F002F8BD4680BD80B582B000AF0E4BCD
S11306907B60FFF7E7FF00F02FF97B68181C002848
S11306A005D0854681B00020C043009001B0FFF71B
S11306B083FFFFF721FFFFF7DDFF044B0020191C28
S11306C000F0DEFDFEE7C0460030002064F0FF1FAE
S11306D080B500AF00F01AFABD4680BD80B500AF0A
S11306E0FFBEBD4680BDC04680B500AFFFBEBD465F
S11306F080BDC04680B500AFFFBEBD4680BDC046CC
S113070080B500AFFFBEBD4680BDC04680B500AF1A
S1130710FFBEBD4680BDC04680B500AFFFBEBD462E
S113072080BDC04680B500AFFFBEBD4680BDC0469B
S113073080B500AFFFBEBD4680BDC04680B500AFEA
S1130740FFBEBD4680BDC04680B500AFFFBEBD46FE
S113075080BDC04680B500AFFFBEBD4680BDC0466B
S113076080B500AFFFBEBD4680BDC04680B500AFBA
S1130770FFBEBD4680BDC04680B500AFFFBEBD46CE
S113078080BDC04680B500AFFFBEBD4680BDC0463B
S113079080B500AFFFBEBD4680BDC04680B500AF8A
S11307A0FFBEBD4680BDC04680B500AFFFBEBD469E
S11307B080BDC04680B500AFFFBEBD4680BDC0460B
S11307C080B500AFFFBEBD4680BDC04680B500AF5A
S11307D0FFBEBD4680BDC04680B500AFFFBEBD466E
S11307E080BDC04680B500AFFFBEBD4680BDC046DB
S11307F080B500AFFFBEBD4680BDC04680B500AF2A
S1130800FFBEBD4680BDC04680B500AFFFBEBD463D
S113081080BDC04680B500AFFFBEBD4680BDC046AA
S113082080B500AFFFBEBD4680BDC04680B500AFF9
S1130830FFBEBD4680BDC04680B500AFFFBEBD460D
S113084080BDC04680B500AFFFBEBD4680BDC0467A
S113085080B500AFFFBEBD4680BDC04680B500AFC9
S1130860FFBEBD4680BDC04680B500AFFFBEBD46DD
S113087080BDC04680B500AFFFBEBD4680BDC0464A
S113088080B500AFFFBEBD4680BDC04680B500AF99
S1130890FFBEBD4680BDC04680B500AFFFBEBD46AD
S11308A080BDC04680B500AFFFBEBD4680BDC0461A
S11308B080B500AFFFBEBD4680BDC04680B500AF69
S11308C0FFBEBD4680BDC04680B500AFFFBEBD467D
S11308D080BDC04680B500AFFFBEBD4680BDC046EA
S11308E080B500AFFFBEBD4680BDC04680B500AF39
S11308F0FFBEBD4680BDC04680B500AF364A37490D
S1130900374BD150374A88235B010021D150354AF7
S1130910354BC0218902D150324A3249334BCB582E
S1130920B02149011943314BD150314B9B78DBB293
S11309301A1C0823134007D02D4B2D4A9278D2B2AB
S113094008210A43D2B29A70264A274B0021D1507B
S1130950244A2449274BC958274B1940254BD150C9
S1130960204B204A1268C02109030A431A601D4A19
S11309701C49204BC958214B0B4080214904194381
S11309801C4BD1501E4B06221A701D4B00225A706C
S11309901B4B1B4AD278D1B21F220A40D2B2DA7062
S11309A0184B80221A70164B00221A71144B002225
S11309B05A71C046124B9B79DBB21A1C10231340A8
S11309C0F8D0C0460E4B9B79DBB21A1C0C231340A3
S11309D0F8D1BD4680BDC04600E000E00000000044
S11309E0080D00000070044044100000381000009E
S11309F000D0074004100000FFFFFEFFFFFFFFFCD4
S1130A00004006400050064080B500AF374B374ADF
S1130A101169374A0A40E021C9000A431A61354B7B
S1130A20344A5279D2B21F218A43D2B25A71314B1D
S1130A30304A1279D2B207218A43D2B21A712E4BAC
S1130A402D4A1278D2B2D2B273218A43D2B2502143
S1130A500A43D2B2D2B21A70274B274A5278D2B282
S1130A60D2B263218A43D2B240210A43D2B2D2B273
S1130A705A70214B204A9278D2B219218A43D2B2B9
S1130A809A701E4B00221A70184B184A116D184A9E
S1130A900A40E021C9000A431A65194A1849C123CA
S1130AA09B00C958174B1940C1239B00D15000200B
S1130AB000F09CF8144B1B68181C00F0EDF80020A3
S1130AC000F006F9104B5B68181C00F057F9002081
S1130AD000F070F90C4B9B68181C00F0BBF9002067
S1130AE000F0D0F962B6BD4680BDC0460090044017
S1130AF0FFF8FFFE00F0074000D0074000E0074089
S1130B0000E100E0FFFF00FF98F0FF1F80B500AF99
S1130B10BD4680BDC046C046C04670470020C046A2
S1130B20C046C046C046C04601300928F7D9C04671
S1130B307047C04680B582B000AF021CBB1D1A804E
S1130B4006E0FFF7EBFFBB1DBA1D1288643A1A805A
S1130B50BB1D1B88642BF4D806E0FFF7DBFFBB1D2D
S1130B60BA1D12880A3A1A80BB1D1B880A2BF4D8B6
S1130B70BD4602B080BDC04680B582B000AF78608B
S1130B8007E00A4B181CFFF7D5FF7B68084A9B183F
S1130B907B607A68054B9A42F3D87B689BB2181C39
S1130BA0FFF7C8FFBD4602B080BDC04660EA000042
S1130BB0A015FFFF80B584B000AF021CBB1D1A80D6
S1130BC0094BFB6008E0FB68181CFFF7D5FFBB1D51
S1130BD01A88BB1D013A1A80BB1D1B88002BF2D159
S1130BE0BD4604B080BDC046EB51000080B584B062
S1130BF000AF7860114BFB60FB687A681A60104B99
S1130C000F4A52698021C9020A435A610C4B0C4AAB
S1130C1011680C4A0A401A600B4B0B4A916C0B4A40
S1130C200A40802149000A439A64094BFA681A6011
S1130C30FB68181CBD4604B080BDC0468CF0FF1F85
S1130C4040F00F40FFFFFBFF00A00440FFF8FFFE51
S1130C5098F0FF1F80B584B000AF7860064B1A6827
S1130C608023DB021340FB60FB685A1E9341DBB216
S1130C70181CBD4604B080BD40F00FF880B582B0AA
S1130C8000AF7860034B8022D2029A60BD4602B066
S1130C9080BDC04640F00FF880B582B000AF7860E8
S1130CA0034B8022D2025A60BD4602B080BDC046CA
S1130CB040F00FF880B582B000AF7860034B80221B
S1130CC0D202DA60BD4602B080BDC04640F00FF8E3
S1130CD080B584B000AF7860114BFB60FB687A6824
S1130CE01A60104B0F4A5269802109030A435A6162
S1130CF00C4B0C4A11680C4A0A401A600B4B0B4A05
S1130D00D16C0B4A0A40802149000A43DA64094B3A
S1130D10FA685A60FB68181CBD4604B080BDC04622
S1130D2090F0FF1F40F00F40FFFFF7FF00A00440CA
S1130D30FFF8FFFE98F0FF1F80B584B000AF786025
S1130D40064B1A6880231B031340FB60FB685A1E82
S1130D509341DBB2181CBD4604B080BD40F00FF8CF
S1130D6080B582B000AF7860034B802212039A6092
S1130D70BD4602B080BDC04640F00FF880B582B0D9
S1130D8000AF7860034B802212035A60BD4602B064
S1130D9080BDC04640F00FF880B582B000AF7860E7
S1130DA0034B80221203DA60BD4602B080BDC04608
S1130DB040F00FF880B584B000AF7860104BFB6052
S1130DC0FB687A681A600F4B0E4A526902210A4383
S1130DD05A610C4B0B4A126802218A431A600A4B6F
S1130DE0094A5168094A0A40802149000A435A6065
S1130DF0074BFA689A60FB68181CBD4604B080BDB6
S1130E0094F0FF1FC0F00F4000C00440FFF8FFFE45
S1130E1098F0FF1F80B584B000AF7860064B1A6865
S1130E2002231340FB60FB685A1E9341DBB2181C7B
S1130E30BD4604B080BDC046C0F00FF880B582B096
S1130E4000AF7860024B02229A60BD4602B080BDBA
S1130E50C0F00FF880B582B000AF7860024B022278
S1130E605A60BD4602B080BDC0F00FF880B582B0B4
S1130E7000AF7860024B0222DA60BD4602B080BD4A
S1130E80C0F00FF880B584B000AF78604C4BFB60C5
S1130E90FB6800225A80FB6800221A81FB6800224A
S1130EA05A60FB6800225A81FB6800221A82FB68A0
S1130EB00022DA60FB687A685A61424A4149424B2F
S1130EC0CB588021C90019433F4BD1503F4B3F4A77
S1130ED051683F4A0A40802189000A435A603B4BCB
S1130EE03A4A91683A4A0A40802189000A439A6042
S1130EF0384B384AD278D2B208218A43D2B2DA7057
S1130F00344B344AD278D2B204218A43D2B2DA7052
S1130F10FB6800221A802F4B00229A702D4B00226E
S1130F209A712C4B00229A722A4B00225A71254A3C
S1130F302449294BC958294B0B408021C904194322
S1130F40254BD150234B234A1278D2B21F218A4316
S1130F50D2B21A701F4B89225A701E4B1D4A927AC4
S1130F60D2B2D2B21F218A43D2B203210A43D2B2EF
S1130F70D2B29A72174B174AD27AD2B2D2B20221A3
S1130F800A43D2B2D2B2DA72124B124AD278D2B235
S1130F90D2B208210A43D2B2D2B2DA700D4B0D4A52
S1130FA0D278D2B2D2B204210A43D2B2D2B2DA7027
S1130FB00B4BFA68DA60FB68181CBD4604B080BDB0
S1130FC0A8F0FF1F0070044034100000009004409B
S1130FD0FFF8FFFE00A0064004100000FFFFFFF32F
S1130FE098F0FF1F90B583B000AF7860104BDB79A9
S1130FF0DBB21C1C7B681B89002B15D07B685B68EB
S1131000591C7A685160E2B21A707B685B880133BC
S11310109AB27B685A807B685A887B681B899A429B
S113102002D17B6800221A81BD4603B090BDC04640
S113103000A0064080B582B000AF78607B685A8912
S11310407B681B8A9A4217D210497B68DB68581C5C
S11310507A68D0601B78CB717B685B8901339AB264
S11310607B685A817B685A897B681B8A9A420AD1B9
S11310707B6800221A8206E07B681B880122934366
S11310809AB27B681A80BD4602B080BD00A00640BB
S113109090B585B000AF78607B68FB60134B1B791B
S11310A0DBB21C1C0F23234009D0104B0F221A71F2
S11310B00E4BDB792023221C9A43131C1C1C202377
S11310C0234003D0FB68181CFFF78CFFFB681B88C8
S11310D01A1C0123134006D08023234003D0FB684D
S11310E0181CFFF7A7FFBD4605B090BD00A0064041
S11310F080B586B000AFF860B9607A6000237B6188
S11311002BE01A4B1B79DBB21A1C202313400ED19F
S1131110164B1F221A717B69002B00D020E0C046B9
S1131120124B1B79DBB21A1C20231340F8D07B69C5
S113113001337B610D4BDB79DAB2BB681A70BB6893
S11311401B780D2B03D1BB680A221A7008E0BB6818
S11311500133BB607B68013B7B607B68002BD0D193
S11311607B69181CBD4606B080BDC04600A0064081
S113117080B586B000AFF860B9607A6000237B6107
S113118023E0C046154B1B79DBB2DBB25BB2002B0C
S1131190F8DABB681B780A2B0AD1104B0D22DA71DE
S11311A0C0460E4B1B79DBB2DBB25BB2002BF8DA24
S11311B00A4BBA681278DA71BB680133BB607B6989
S11311C001337B617B68013B7B607B68002BD8D15A
S11311D07B69181CBD4606B080BDC04600A0064011
S11311E0002934D00123002210B488422CD30124D6
S11311F02407A14204D2814202D209011B01F8E76B
S1131200E400A14204D2814202D249005B00F8E723
S1131210884201D3401A1A434C08A04202D3001B4F
S11312205C0822438C08A04202D3001B9C08224382
S1131230CC08A04202D3001BDC082243002803D0C0
S11312401B0901D00909E3E7101C10BC70470028F2
S113125001D00020C04307B4024802A14018029004
S113126003BDC046190000000029F0D003B5FFF704
S1131270B9FF0EBC4243891A1847C0467047C0469E
S113128080B500AFFFF7C0FB074B9B68181CFFF746
S1131290EDFD064B181C00F00BF8FA239B00181CFC
S11312A0FFF788FCF0E7C04698F0FF1F0421000018
S11312B00FB40B4B13B51C68002C05D0A369002B8D
S11312C002D1201C00F09CFC05ABA168201C049AF0
S11312D0019300F02FF816BC08BC04B01847C046B0
S11312E060F0FF1F936810B5013B9360002B05DA93
S11312F09469A34208DBCBB20A2B05D01368581CAF
S113130010601970C8B201E000F0A6FA10BDF8B57B
S1131310061C0F1C141CD518AC4208D02178301CB4
S11313203A1CFFF7DFFF0134431CF5D100E0002035
S1131330F8BD0000F0B59FB0061C0F1C0392059386
S1131340002804D08169002901D100F059FC754BB3
S11313509F4201D1776808E0734B9F4201D1B7687F
S113136003E0724B9F4200D1F768BB891A070AD584
S11313703B69002B07D006AD00236B6120236B76FD
S11313803023AB763BE0301C391C00F0BDFA00285A
S1131390F1D001204042C2E0059A111D1268059166
S11313A0002A76DB0992013423782E2B00D181E0C8
S11313B021785F48032200F0E3FC002807D05C4951
S11313C02A68431A40209840104328600134217849
S11313D0631C584806220393297600F0D1FC0028A8
S11313E000D18AE0544B002B7ED1059B07220733A2
S11313F09343083305936A69049953186B61039CFA
S11314002378002B04D10399611A029110D003E0D0
S1131410252BF8D00134F3E7301C391C039A029BC6
S1131420FFF775FF013075D06A69029953186B6133
S11314302378002B6ED0012252426A606A46002350
S11314405B3201342B60EB60AB601370AB652178C9
S11314503A48052200F094FC002808D0374A0134A9
S1131460831A012098402B6818432860EFE72B6803
S1131470D90603D56A4620215B3211701A0703D5B9
S11314806A462B215B32117022782A2A84D0099B68
S113149005E05242EA60022213432B6083E722787C
S11314A0303A092A04D80A214B4301349B18F6E741
S11314B0099379E763782A2B09D1059B02341A1D15
S11314C01B680592002B0DDA01235B420AE001340C
S11314D000232278303A092A04D80A214B430134E4
S11314E09B18F6E7079363E705AB0093301C291CB0
S11314F03A1C134B00E000BF07E005AB0093301C1F
S1131500291C3A1C0E4B00F091F804900499013107
S113151000D070E7BB895A0600D53AE70B981FB094
S1131520F0BDC04648210000682100008821000069
S11315301A2100001E2100000000000014210000F8
S11315400F130000F7B5151C01930A698B68061C7C
S11315500C1C934200DA131C221C2B6043321278B9
S1131560002A01D001332B602068800602D52B6845
S113157002332B60216806270F401FD0231C4333FE
S11315801B785A1E9341226892061FD5E1184031F8
S11315903020C870211C5A1C45310978A2184032E9
S11315A00233D17012E0221C301C0199193201233C
S11315B0089FB847013011D0009F01370097E068B9
S11315C02968009F431A9F42EDDBD7E7221C301C99
S11315D001994332089FB847013002D101204042AB
S11315E023E0206806212B68E268014000250429D5
S11315F003D1D51AEB43DB171D40A26823699A4235
S113160001DDD31AED1800270097009FAF420BDAD3
S1131610221C301C01991A320123089FB84701305B
S1131620DCD0009F0137EFE70020FEBDF0B50D1CB4
S11316308BB0433506920590079304950B7E0C1CE2
S1131640109A6E2B00D1A7E011D8632B22D009D8B1
S1131650002B00D1B0E0582B00D0C0E045310B7016
S11316607B4D4EE0642B1CD0692B1AD0B7E0732B52
S113167000D1A5E009D86F2B29D0702B00D0AEE0A3
S11316800E68202333430B6036E0752B1FD0782B74
S113169032D0A4E013680D1C191D423511601B687B
S11316A09FE0216813680E0603D5191D11601E689A
S11316B005E04806F9D5191D116000215E5E644BF2
S11316C0002E3BDA049D2D2276422A7036E02168F2
S11316D013680E0603D5191D11601E6804E0480640
S11316E0F9D5191D1E881160594B227E03930827D2
S11316F06F2A1ED00A271CE0231C78214533554D40
S1131700197011682368081D039510601E0601D521
S11317100E6802E05806FBD50E88D90702D52022B0
S1131720134323601027002E03D1226820239A43F9
S11317302260231C002243331A7001E003930A271A
S11317406368A360002B03DB2568042295432560AE
S1131750002E02D1049D002B0ED0049D301C391C98
S1131760FFF782FD0398013D435C301C2B70391C4C
S1131770FFF736FD061EF1D1082F09D12168C907EC
S113178006D5626823699A4202DC013D30232B703E
S1131790049E731B23612AE00868136849690506DF
S11317A004D5181D10601B68196005E04606F8D5BD
S11317B0181D10601B68198000232361049D16E026
S11317C01368191D11601D68281C00F0E7FB63688D
S11317D02061984200D923612069606004E0251CDF
S11317E042352B7001232361049E00233370079E2E
S11317F005980096211C09AA069BFFF7A3FE013059
S113180002D10120404221E02A1C0598069923694F
S1131810079DA8470130F4D02668B60705D4099B74
S1131820E068984212DA181C10E00025E068099973
S1131830431A9D42F3DA221C0598069919320123B2
S1131840079EB0470130DCD00135EFE70BB0F0BDA7
S1131850252100003621000070B5051C0E1C141C47
S1131860002804D08269002A01D100F0C9F9234B71
S11318709C4201D16C6808E0214B9C4201D1AC68C8
S113188003E0204B9C4200D1EC68A369A360A389C8
S11318901A070AD52369002B07D022682369F6B2F8
S11318A0D01A626990420FDB08E0281C211C00F06A
S11318B02BF80028F1D0012040421DE0281C211CF7
S11318C000F01EF90028F6D1A3680130013BA360A3
S11318D023685A1C22601E706369984205D0A3894C
S11318E0301CDA0708D50A2E06D1281C211C00F06A
S11318F007F90028DFD1301C70BDC0464821000024
S11319006821000088210000344B70B51D68061C56
S11319100C1C002D05D0A969002902D1281C00F057
S11319206FF92F4B9C4201D16C6808E02D4B9C420F
S113193001D1AC6803E02C4B9C4200D1EC68A28935
S113194093B2190721D4D90605D40923336040235F
S11319501A43A2813FE05A0713D5616B002908D0CE
S1131960231C4433994202D0301C00F01DFA00239A
S11319706363A38924229343A381002363602369BF
S11319802360A38908221343A381216900290BD171
S1131990A389A02292001A4080239B009A4203D07C
S11319A0301C211C00F09CF9A38901221A4005D0A7
S11319B061690022A2604A42A26103E0990700D44F
S11319C06269A26022690020824206D1190604D508
S11319D040221343A3810120404270BD60F0FF1FE9
S11319E0482100006821000088210000F7B58B8998
S11319F0051C0C1C19075ED46268002A02DC276CE3
S1131A00002F1ADDE76A002F17D000222E682A6003
S1131A10802252011A4001D0626D15E0281C216A0F
S1131A200123B847021C411C0ED12B68002B0BD09C
S1131A301D2B01D0162B02D12E6000205EE0A3895D
S1131A4040210B43A38159E0A3895F0706D5616850
S1131A50636B521A002B01D0276CD21B281C216AFD
S1131A600023E76AB847A289411C06D12B68002BE2
S1131A7003D01D2B01D0162B19D1002363602369D9
S1131A802360D70405D5411C02D12A68002A00D15D
S1131A906065616B2E600029CFD0231C44339942CA
S1131AA002D0281C00F080F90020606326E0402367
S1131AB01A43A28122E02669002EBED027680022A4
S1131AC0BF1B01972660990700D16269A260019F3C
S1131AD0002FB2DD281C216A321C019BA76AB8477B
S1131AE0002806DCA389402213430120A38140423D
S1131AF004E0019F36183F1A0197E8E7FEBD000095
S1131B000A6938B5051C0C1C002A01D100201CE010
S1131B10002804D08369002B01D100F071F80B4B2D
S1131B209C4201D16C6808E0094B9C4201D1AC682D
S1131B3003E0084B9C4200D1EC680C22A35E002B0E
S1131B40E4D0281C211CFFF751FF38BD48210000B8
S1131B506821000088210000F8B5041C071C4834E3
S1131B60002C12D0A5686668013E0CD4AB89012B09
S1131B7007D90E22AB5E013303D0381C291CFFF7B2
S1131B80BFFF6835F0E72468EAE7F8BD002310B525
S1131B90041C03604360836081814366C2810361E6
S1131BA043618361191C08225C3000F0F4F8054B92
S1131BB024626362044BA362044BE362044B236319
S1131BC010BDC046051F00002D1F0000651F00004A
S1131BD0911F000070B54B1E68255D430E1C291C27
S1131BE0743100F029F9041E08D000210160466018
S1131BF02A1C0C30A060683200F0CDF8201C70BDA7
S1131C00836913B5041C002B27D18364C364036563
S1131C10124B134A1B688262984201D101238361EB
S1131C20201C00F01FF86060201C00F01BF8A0606E
S1131C30201C00F017F80421E06000226068FFF720
S1131C40A5FFA06809210122FFF7A0FFE068122187
S1131C500222FFF79BFF0123A36113BDAC21000007
S1131C60591B0000F8B51D4B071C1E68B269002AF9
S1131C7002D1301CFFF7C4FF4836B4687368013BD7
S1131C8005D40C22A55E002D10D06834F7E7336824
S1131C90002B06D1381C0421FFF79CFF306000287C
S1131CA001D03668E9E70C233B6016E001235B4270
S1131CB0E381201C0123A38165662560A56065601E
S1131CC025616561A5615C30291C082200F063F878
S1131CD06563A563A564E564201CF8BDAC21000020
S1131CE0F0B58B8991B0051C0C1C9A0725D40E23E2
S1131CF0C95E002906DAA78980231F400FD0002778
S1131D0040260EE001AA00F077F90028F3DB029BDD
S1131D10F0273F02184A1F40BF187B425F418026CC
S1131D20F600281C311C00F087F800280CD1A38988
S1131D309A051FD402221343A381231C4733236033
S1131D4023610123636115E00C4B8022AB62A389FC
S1131D5020601343A38120616661002F0AD00E2303
S1131D60E15E281C00F05AF9002803D0A38901225F
S1131D701343A38111B0F0BD00E0FFFF591B000025
S1131D80C9B28218904204D003788B4202D0013049
S1131D90F8E700207047031C8218934202D01970A0
S1131DA00133FAE77047000030B5002940D0043908
S1131DB00B68002B00DAC9181E4A1368141C002B88
S1131DC002D14B60116033E099420FD208680A18BF
S1131DD09A4205D113685268C01808604A6000E04E
S1131DE04B60216024E08A4203D8131C5A68002AFD
S1131DF0F9D11D685C198C420BD10968691858180F
S1131E001960904214D114685268091919605A6013
S1131E100EE08C4202D90C23036009E008680C1818
S1131E20944203D114685268001908604A605960EA
S1131E3030BDC046C4F0FF1F70B50323CD1C9D43C5
S1131E400835061C0C2D01D20C2501E0002D3FDBCA
S1131E508D423DD3204B1C681A1C211C002913D031
S1131E600868431B0DD40B2B02D90B60CC181EE061
S1131E708C4202D1636813601AE0486860600C1CED
S1131E8016E00C1C4968E9E7144C2068002803D1CB
S1131E90301C00F025F82060301C291C00F020F8CC
S1131EA0431C15D0C41C03239C4384420AD12560DF
S1131EB0201C0B300722231D9043C31A0BD05A4217
S1131EC0E25008E0211A301C00F00AF80130EED18B
S1131ED00C233360002070BDC4F0FF1FC0F0FF1F4F
S1131EE038B5074C0023051C081C236000F0F0F8EB
S1131EF0431C03D12368002B00D02B6038BDC0469F
S1131F00CCF0FF1F38B50C1C0E25495F00F0ACF86F
S1131F10002803DB626D1318636503E0A289024B9A
S1131F201340A38138BDC046FFEFFFFFF8B51E1C68
S1131F308B89051C0C1C171CDA0505D50E23C95EFC
S1131F400022022300F07CF8A289054B281C1340D0
S1131F50A3810E22A15E331C3A1C00F027F8F8BDC1
S1131F60FFEFFFFF38B50C1C0E25495F00F068F841
S1131F70A389421C03D1054A1340A38104E08022B3
S1131F8052011343A381606538BDC046FFEFFFFFD4
S1131F9008B50E23C95E00F01DF808BD0023C25C1D
S1131FA00133002AFBD1581E7047000038B5084C95
S1131FB0051C00202060081C111C1A1CFFF7D8F80F
S1131FC0431C03D12368002B00D02B6038BDC046CE
S1131FD0CCF0FF1F38B5074C0023051C081C2360F8
S1131FE000F056F8431C03D12368002B00D02B606B
S1131FF038BDC046CCF0FF1F38B5074C0023051C84
S1132000081C111C236000F04BF8431C03D1236807
S1132010002B00D02B6038BDCCF0FF1F38B5074C27
S11320200023051C081C236000F042F8431C03D164
S11320302368002B00D02B6038BDC046CCF0FF1FB6
S113204038B5084C051C00202060081C111C1A1C03
S113205000F036F8431C03D12368002B00D02B601A
S113206038BDC046CCF0FF1F38B5084C051C002015
S11320702060081C111C1A1CFFF73AF8431C03D1FA
S11320802368002B00D02B6038BDC046CCF0FF1F66
S1132090024B5822012040421A607047CCF0FF1FC7
S11320A0024B5822012040421A607047CCF0FF1FB7
S11320B0024B582200201A607047C046CCF0FF1F24
S11320C0024B5822012040421A607047CCF0FF1F97
S11320D0094A1368002B0CD018186946884202D8A4
S11320E01060181C7047054B0C2201201A604042F6
S11320F0F8E7034B1360EFE7C8F0FF1FCCF0FF1FB6
S1132100E8F0FF1F68656C6C6F20776F726C642158
S11321100D0A0000232D302B2000686C4C006566EE
S11321206745464700303132333435363738394124
S1132130424344454600303132333435363738393A
S11321406162636465660000000000000000000036
S1132150000000000000000000000000000000007B
S1132160000000000000000000000000000000006B
S1132170000000000000000000000000000000005B
S1132180000000000000000000000000000000004B
S1132190000000000000000000000000000000003B
S11321A000000000000000004300000000F0FF1FDA
S11321B00000000048210000682100008821000080
S11321C0000000000000000000000000000000000B
S11321D0A821000000000000000000000000000032
S11321E000000000000000000000000000000000EB
S11321F000000000000000000000000000000000DB
S113220000000000000000000000000000000000CA
S107221000F0FF1FB8
S1132214B021000000F0FF1F640000000000000073
S10B22240000000000000000AE
S90306896D
