S01800002E5C6F626A5C6170706C69636174696F6E2E73313927
S11300000030002089060000D1060000DD06000053
S1130010E9060000F5060000010700000D070000D6
S11300201907000025070000310700003D07000004
S11300304907000055070000610700006D07000034
S11300407907000085070000910700009D07000064
S1130050A9070000B5070000C1070000CD07000094
S1130060D9070000E5070000F1070000FD070000C4
S11300700908000015080000210800002D080000F0
S11300803908000045080000510800005D08000020
S11300906908000075080000810800008D08000050
S11300A099080000A5080000B1080000BD08000080
S11300B0C9080000D5080000E1080000ED080000B0
S1130400FFFFFFFFFFFFFFFFFFFFFFFF7EFFFFFF79
S113041080B582B000AF78603960BD4602B080BD5F
S113042080B58AB000AFF860B9607A607B687B629F
S113043004233B620323FB610223BB6101237B6131
S113044001233B61FA68BB689A4202D07B68002BA7
S113045000D14DE049E0FB69BA68134018D1FB694B
S1130460FA68134014D13A6A7B6A9A4210D8FB683E
S1130470BA6812681A603B6AFA68D318FB603B6A70
S1130480BA68D318BB603B6A7A6AD31A7B622CE0E1
S11304907B69BA68134018D17B69FA68134014D198
S11304A0BA697B6A9A4210D8FB68BA6812881A80C3
S11304B0BB69FA68D318FB60BB69BA68D318BB6020
S11304C0BB697A6AD31A7B620FE0FB68BA68127858
S11304D01A703B69FA68D318FB603B69BA68D31891
S11304E0BB603B697A6AD31A7B627B6A002BB2D108
S11304F0BD460AB080BDC04690B583B000AF2D4B59
S1130500002B00D153E000237B6032E029497A6854
S1130510131C5B009B189B00CB18586825497A680C
S1130520131C5B009B189B005958224C7A68131CBF
S11305305B009B189B00E31808331B681A1CFFF729
S11305406FFF1C497A68131C5B009B189B00CB1837
S1130550596818487A68131C5B009B189B00C318E1
S113056008331B68081C191CFFF752FF7B68013312
S11305707B6010497A68131C5B009B189B005B58D6
S1130580002BC3D10B497A68131C5B009B189B009A
S1130590CB185B68002BB9D106497A68131C5B0041
S11305A09B189B00CB1808331B68002BAED1BD46AB
S11305B003B090BD3011000080B588B000AF274A69
S11305C0274BD31AFB61264BBB6104237B610323B6
S11305D03B610223FB600123BB6001237B60FB6959
S11305E0002B00D136E032E03B69BA6913400FD1E9
S11305F07A69FB699A420BD8BB6900221A607B694D
S1130600BA69D318BB617B69FA69D31AFB611EE02E
S1130610BB68BA6913400FD1FA68FB699A420BD8D8
S1130620BB6900221A80FB68BA69D318BB61FB68F6
S1130630FA69D31AFB610AE0BB6900221A707B686D
S1130640BA69D318BB617B68FA69D31AFB61FB6989
S1130650002BC9D1BD4608B080BDC04660F0FF1F65
S113066004F0FF1F80B500AFBD4680BD80B500AF6C
S1130670BD4680BD80B500AFBD4680BD80B500AF2E
S113068000F002F8BD4680BD80B582B000AF0E4BCD
S11306907B60FFF7E7FF00F02FF97B68181C002848
S11306A005D0854681B00020C043009001B0FFF71B
S11306B083FFFFF721FFFFF7DDFF044B0020191C28
S11306C000F016FDFEE7C0460030002004F0FF1FD6
S11306D080B500AF00F01AFABD4680BD80B500AF0A
S11306E0FFBEBD4680BDC04680B500AFFFBEBD465F
S11306F080BDC04680B500AFFFBEBD4680BDC046CC
S113070080B500AFFFBEBD4680BDC04680B500AF1A
S1130710FFBEBD4680BDC04680B500AFFFBEBD462E
S113072080BDC04680B500AFFFBEBD4680BDC0469B
S113073080B500AFFFBEBD4680BDC04680B500AFEA
S1130740FFBEBD4680BDC04680B500AFFFBEBD46FE
S113075080BDC04680B500AFFFBEBD4680BDC0466B
S113076080B500AFFFBEBD4680BDC04680B500AFBA
S1130770FFBEBD4680BDC04680B500AFFFBEBD46CE
S113078080BDC04680B500AFFFBEBD4680BDC0463B
S113079080B500AFFFBEBD4680BDC04680B500AF8A
S11307A0FFBEBD4680BDC04680B500AFFFBEBD469E
S11307B080BDC04680B500AFFFBEBD4680BDC0460B
S11307C080B500AFFFBEBD4680BDC04680B500AF5A
S11307D0FFBEBD4680BDC04680B500AFFFBEBD466E
S11307E080BDC04680B500AFFFBEBD4680BDC046DB
S11307F080B500AFFFBEBD4680BDC04680B500AF2A
S1130800FFBEBD4680BDC04680B500AFFFBEBD463D
S113081080BDC04680B500AFFFBEBD4680BDC046AA
S113082080B500AFFFBEBD4680BDC04680B500AFF9
S1130830FFBEBD4680BDC04680B500AFFFBEBD460D
S113084080BDC04680B500AFFFBEBD4680BDC0467A
S113085080B500AFFFBEBD4680BDC04680B500AFC9
S1130860FFBEBD4680BDC04680B500AFFFBEBD46DD
S113087080BDC04680B500AFFFBEBD4680BDC0464A
S113088080B500AFFFBEBD4680BDC04680B500AF99
S1130890FFBEBD4680BDC04680B500AFFFBEBD46AD
S11308A080BDC04680B500AFFFBEBD4680BDC0461A
S11308B080B500AFFFBEBD4680BDC04680B500AF69
S11308C0FFBEBD4680BDC04680B500AFFFBEBD467D
S11308D080BDC04680B500AFFFBEBD4680BDC046EA
S11308E080B500AFFFBEBD4680BDC04680B500AF39
S11308F0FFBEBD4680BDC04680B500AF364A37490D
S1130900374BD150374A88235B010021D150354AF7
S1130910354BC0218902D150324A3249334BCB582E
S1130920B02149011943314BD150314B9B78DBB293
S11309301A1C0823134007D02D4B2D4A9278D2B2AB
S113094008210A43D2B29A70264A274B0021D1507B
S1130950244A2449274BC958274B1940254BD150C9
S1130960204B204A1268C02109030A431A601D4A19
S11309701C49204BC958214B0B4080214904194381
S11309801C4BD1501E4B06221A701D4B00225A706C
S11309901B4B1B4AD278D1B21F220A40D2B2DA7062
S11309A0184B80221A70164B00221A71144B002225
S11309B05A71C046124B9B79DBB21A1C10231340A8
S11309C0F8D0C0460E4B9B79DBB21A1C0C231340A3
S11309D0F8D1BD4680BDC04600E000E00000000044
S11309E0080D00000070044044100000381000009E
S11309F000D0074004100000FFFFFEFFFFFFFFFCD4
S1130A00004006400050064080B500AF374B374ADF
S1130A101169374A0A40E021C9000A431A61354B7B
S1130A20344A5279D2B21F218A43D2B25A71314B1D
S1130A30304A1279D2B207218A43D2B21A712E4BAC
S1130A402D4A1278D2B2D2B273218A43D2B2502143
S1130A500A43D2B2D2B21A70274B274A5278D2B282
S1130A60D2B263218A43D2B240210A43D2B2D2B273
S1130A705A70214B204A9278D2B219218A43D2B2B9
S1130A809A701E4B00221A70184B184A116D184A9E
S1130A900A40E021C9000A431A65194A1849C123CA
S1130AA09B00C958174B1940C1239B00D15000200B
S1130AB000F09CF8144B1B68181C00F0EDF80020A3
S1130AC000F006F9104B5B68181C00F057F9002081
S1130AD000F070F90C4B9B68181C00F0BBF9002067
S1130AE000F0D0F962B6BD4680BDC0460090044017
S1130AF0FFF8FFFE00F0074000D0074000E0074089
S1130B0000E100E0FFFF00FF38F0FF1F80B500AFF9
S1130B10BD4680BDC046C046C04670470020C046A2
S1130B20C046C046C046C04601300928F7D9C04671
S1130B307047C04680B582B000AF021CBB1D1A804E
S1130B4006E0FFF7EBFFBB1DBA1D1288643A1A805A
S1130B50BB1D1B88642BF4D806E0FFF7DBFFBB1D2D
S1130B60BA1D12880A3A1A80BB1D1B880A2BF4D8B6
S1130B70BD4602B080BDC04680B582B000AF78608B
S1130B8007E00A4B181CFFF7D5FF7B68084A9B183F
S1130B907B607A68054B9A42F3D87B689BB2181C39
S1130BA0FFF7C8FFBD4602B080BDC04660EA000042
S1130BB0A015FFFF80B584B000AF021CBB1D1A80D6
S1130BC0094BFB6008E0FB68181CFFF7D5FFBB1D51
S1130BD01A88BB1D013A1A80BB1D1B88002BF2D159
S1130BE0BD4604B080BDC046EB51000080B584B062
S1130BF000AF7860114BFB60FB687A681A60104B99
S1130C000F4A52698021C9020A435A610C4B0C4AAB
S1130C1011680C4A0A401A600B4B0B4A916C0B4A40
S1130C200A40802149000A439A64094BFA681A6011
S1130C30FB68181CBD4604B080BDC0462CF0FF1FE5
S1130C4040F00F40FFFFFBFF00A00440FFF8FFFE51
S1130C5038F0FF1F80B584B000AF7860064B1A6887
S1130C608023DB021340FB60FB685A1E9341DBB216
S1130C70181CBD4604B080BD40F00FF880B582B0AA
S1130C8000AF7860034B8022D2029A60BD4602B066
S1130C9080BDC04640F00FF880B582B000AF7860E8
S1130CA0034B8022D2025A60BD4602B080BDC046CA
S1130CB040F00FF880B582B000AF7860034B80221B
S1130CC0D202DA60BD4602B080BDC04640F00FF8E3
S1130CD080B584B000AF7860114BFB60FB687A6824
S1130CE01A60104B0F4A5269802109030A435A6162
S1130CF00C4B0C4A11680C4A0A401A600B4B0B4A05
S1130D00D16C0B4A0A40802149000A43DA64094B3A
S1130D10FA685A60FB68181CBD4604B080BDC04622
S1130D2030F0FF1F40F00F40FFFFF7FF00A004402A
S1130D30FFF8FFFE38F0FF1F80B584B000AF786085
S1130D40064B1A6880231B031340FB60FB685A1E82
S1130D509341DBB2181CBD4604B080BD40F00FF8CF
S1130D6080B582B000AF7860034B802212039A6092
S1130D70BD4602B080BDC04640F00FF880B582B0D9
S1130D8000AF7860034B802212035A60BD4602B064
S1130D9080BDC04640F00FF880B582B000AF7860E7
S1130DA0034B80221203DA60BD4602B080BDC04608
S1130DB040F00FF880B584B000AF7860104BFB6052
S1130DC0FB687A681A600F4B0E4A526902210A4383
S1130DD05A610C4B0B4A126802218A431A600A4B6F
S1130DE0094A5168094A0A40802149000A435A6065
S1130DF0074BFA689A60FB68181CBD4604B080BDB6
S1130E0034F0FF1FC0F00F4000C00440FFF8FFFEA5
S1130E1038F0FF1F80B584B000AF7860064B1A68C5
S1130E2002231340FB60FB685A1E9341DBB2181C7B
S1130E30BD4604B080BDC046C0F00FF880B582B096
S1130E4000AF7860024B02229A60BD4602B080BDBA
S1130E50C0F00FF880B582B000AF7860024B022278
S1130E605A60BD4602B080BDC0F00FF880B582B0B4
S1130E7000AF7860024B0222DA60BD4602B080BD4A
S1130E80C0F00FF880B584B000AF78604C4BFB60C5
S1130E90FB6800225A80FB6800221A81FB6800224A
S1130EA05A60FB6800225A81FB6800221A82FB68A0
S1130EB00022DA60FB687A685A61424A4149424B2F
S1130EC0CB588021C90019433F4BD1503F4B3F4A77
S1130ED051683F4A0A40802189000A435A603B4BCB
S1130EE03A4A91683A4A0A40802189000A439A6042
S1130EF0384B384AD278D2B208218A43D2B2DA7057
S1130F00344B344AD278D2B204218A43D2B2DA7052
S1130F10FB6800221A802F4B00229A702D4B00226E
S1130F209A712C4B00229A722A4B00225A71254A3C
S1130F302449294BC958294B0B408021C904194322
S1130F40254BD150234B234A1278D2B21F218A4316
S1130F50D2B21A701F4B89225A701E4B1D4A927AC4
S1130F60D2B2D2B21F218A43D2B203210A43D2B2EF
S1130F70D2B29A72174B174AD27AD2B2D2B20221A3
S1130F800A43D2B2D2B2DA72124B124AD278D2B235
S1130F90D2B208210A43D2B2D2B2DA700D4B0D4A52
S1130FA0D278D2B2D2B204210A43D2B2D2B2DA7027
S1130FB00B4BFA68DA60FB68181CBD4604B080BDB0
S1130FC048F0FF1F007004403410000000900440FB
S1130FD0FFF8FFFE00A0064004100000FFFFFFF32F
S1130FE038F0FF1F90B583B000AF7860104BDB7909
S1130FF0DBB21C1C7B681B89002B15D07B685B68EB
S1131000591C7A685160E2B21A707B685B880133BC
S11310109AB27B685A807B685A887B681B899A429B
S113102002D17B6800221A81BD4603B090BDC04640
S113103000A0064080B582B000AF78607B685A8912
S11310407B681B8A9A4217D210497B68DB68581C5C
S11310507A68D0601B78CB717B685B8901339AB264
S11310607B685A817B685A897B681B8A9A420AD1B9
S11310707B6800221A8206E07B681B880122934366
S11310809AB27B681A80BD4602B080BD00A00640BB
S113109090B585B000AF78607B68FB60134B1B791B
S11310A0DBB21C1C0F23234009D0104B0F221A71F2
S11310B00E4BDB792023221C9A43131C1C1C202377
S11310C0234003D0FB68181CFFF78CFFFB681B88C8
S11310D01A1C0123134006D08023234003D0FB684D
S11310E0181CFFF7A7FFBD4605B090BD00A0064041
S11310F080B500AFFFF788FC0A4B1B68012B05D1B4
S1131100094B1B68181CFFF7D5FD04E0064B9B68D0
S1131110181CFFF7ABFEFA235B00181CFFF74AFD0F
S10F1120EAE7C04600F0FF1F38F0FF1F94
S107112C01000000BA
S11311302C11000000F0FF1F04000000000000005C
S10B11400000000000000000A3
S90306896D
